{
    "contractName": "Marketplace",
    "abi": [
        {
            "inputs": [],
            "name": "Base__AlreadySet",
            "type": "error"
        },
        {
            "inputs": [],
            "name": "Base__Unauthorized",
            "type": "error"
        },
        {
            "inputs": [],
            "name": "ERC1967UpgradeUpgradeable__DelegateCallToNonContract",
            "type": "error"
        },
        {
            "inputs": [],
            "name": "ERC1967UpgradeUpgradeable__ExecutionFailed",
            "type": "error"
        },
        {
            "inputs": [],
            "name": "ERC1967UpgradeUpgradeable__ImplementationIsNotContract",
            "type": "error"
        },
        {
            "inputs": [],
            "name": "ERC1967UpgradeUpgradeable__ImplementationIsNotUUPS",
            "type": "error"
        },
        {
            "inputs": [],
            "name": "ERC1967UpgradeUpgradeable__UnsupportedProxiableUUID",
            "type": "error"
        },
        {
            "inputs": [],
            "name": "FundForwarder__ForwardFailed",
            "type": "error"
        },
        {
            "inputs": [],
            "name": "Initializable__AlreadyInitialized",
            "type": "error"
        },
        {
            "inputs": [],
            "name": "Initializable__NotInitializing",
            "type": "error"
        },
        {
            "inputs": [],
            "name": "Marketplace__InsufficientAmount",
            "type": "error"
        },
        {
            "inputs": [],
            "name": "Marketplace__InvalidListingId",
            "type": "error"
        },
        {
            "inputs": [],
            "name": "Marketplace__Unauthorized",
            "type": "error"
        },
        {
            "inputs": [],
            "name": "Marketplace__UnsupportedNFT",
            "type": "error"
        },
        {
            "inputs": [
                {
                    "internalType": "contract IERC20Upgradeable",
                    "name": "",
                    "type": "address"
                }
            ],
            "name": "Marketplace__UnsupportedPayment",
            "type": "error"
        },
        {
            "inputs": [],
            "name": "SSTORE2__DeploymentFailed",
            "type": "error"
        },
        {
            "inputs": [],
            "name": "Transferable__InvalidArguments",
            "type": "error"
        },
        {
            "inputs": [],
            "name": "Transferable__TransferFailed",
            "type": "error"
        },
        {
            "inputs": [],
            "name": "UUPSUpgradeable__OnlyActiveProxy",
            "type": "error"
        },
        {
            "inputs": [],
            "name": "UUPSUpgradeable__OnlyCall",
            "type": "error"
        },
        {
            "inputs": [],
            "name": "UUPSUpgradeable__OnlyDelegateCall",
            "type": "error"
        },
        {
            "anonymous": false,
            "inputs": [
                {
                    "indexed": false,
                    "internalType": "address",
                    "name": "previousAdmin",
                    "type": "address"
                },
                {
                    "indexed": false,
                    "internalType": "address",
                    "name": "newAdmin",
                    "type": "address"
                }
            ],
            "name": "AdminChanged",
            "type": "event"
        },
        {
            "anonymous": false,
            "inputs": [
                {
                    "indexed": true,
                    "internalType": "contract IAuthority",
                    "name": "from",
                    "type": "address"
                },
                {
                    "indexed": true,
                    "internalType": "contract IAuthority",
                    "name": "to",
                    "type": "address"
                }
            ],
            "name": "AuthorityUpdated",
            "type": "event"
        },
        {
            "anonymous": false,
            "inputs": [
                {
                    "indexed": true,
                    "internalType": "address",
                    "name": "beacon",
                    "type": "address"
                }
            ],
            "name": "BeaconUpgraded",
            "type": "event"
        },
        {
            "anonymous": false,
            "inputs": [
                {
                    "indexed": true,
                    "internalType": "address",
                    "name": "from",
                    "type": "address"
                },
                {
                    "indexed": true,
                    "internalType": "uint256",
                    "name": "amount",
                    "type": "uint256"
                }
            ],
            "name": "Forwarded",
            "type": "event"
        },
        {
            "anonymous": false,
            "inputs": [
                {
                    "indexed": false,
                    "internalType": "uint256",
                    "name": "version",
                    "type": "uint256"
                }
            ],
            "name": "Initialized",
            "type": "event"
        },
        {
            "anonymous": false,
            "inputs": [
                {
                    "indexed": true,
                    "internalType": "uint256",
                    "name": "listingId",
                    "type": "uint256"
                },
                {
                    "components": [
                        {
                            "internalType": "contract IERC721Upgradeable",
                            "name": "nft",
                            "type": "address"
                        },
                        {
                            "internalType": "address",
                            "name": "seller",
                            "type": "address"
                        },
                        {
                            "internalType": "uint256",
                            "name": "tokenId",
                            "type": "uint256"
                        },
                        {
                            "internalType": "uint256",
                            "name": "usdPrice",
                            "type": "uint256"
                        },
                        {
                            "internalType": "contract IERC20Upgradeable[]",
                            "name": "payments",
                            "type": "address[]"
                        }
                    ],
                    "indexed": true,
                    "internalType": "struct IMarketplace.Item",
                    "name": "item",
                    "type": "tuple"
                }
            ],
            "name": "ItemModified",
            "type": "event"
        },
        {
            "anonymous": false,
            "inputs": [
                {
                    "indexed": true,
                    "internalType": "uint256",
                    "name": "listingId",
                    "type": "uint256"
                },
                {
                    "components": [
                        {
                            "internalType": "contract IERC721Upgradeable",
                            "name": "nft",
                            "type": "address"
                        },
                        {
                            "internalType": "address",
                            "name": "seller",
                            "type": "address"
                        },
                        {
                            "internalType": "uint256",
                            "name": "tokenId",
                            "type": "uint256"
                        },
                        {
                            "internalType": "uint256",
                            "name": "usdPrice",
                            "type": "uint256"
                        },
                        {
                            "internalType": "contract IERC20Upgradeable[]",
                            "name": "payments",
                            "type": "address[]"
                        }
                    ],
                    "indexed": true,
                    "internalType": "struct IMarketplace.Item",
                    "name": "item",
                    "type": "tuple"
                }
            ],
            "name": "Listed",
            "type": "event"
        },
        {
            "anonymous": false,
            "inputs": [
                {
                    "indexed": true,
                    "internalType": "uint256",
                    "name": "listingId",
                    "type": "uint256"
                },
                {
                    "components": [
                        {
                            "internalType": "contract IERC721Upgradeable",
                            "name": "nft",
                            "type": "address"
                        },
                        {
                            "internalType": "address",
                            "name": "seller",
                            "type": "address"
                        },
                        {
                            "internalType": "uint256",
                            "name": "tokenId",
                            "type": "uint256"
                        },
                        {
                            "internalType": "uint256",
                            "name": "usdPrice",
                            "type": "uint256"
                        },
                        {
                            "internalType": "contract IERC20Upgradeable[]",
                            "name": "payments",
                            "type": "address[]"
                        }
                    ],
                    "indexed": true,
                    "internalType": "struct IMarketplace.Item",
                    "name": "item",
                    "type": "tuple"
                }
            ],
            "name": "Unlisted",
            "type": "event"
        },
        {
            "anonymous": false,
            "inputs": [
                {
                    "indexed": true,
                    "internalType": "address",
                    "name": "implementation",
                    "type": "address"
                }
            ],
            "name": "Upgraded",
            "type": "event"
        },
        {
            "anonymous": false,
            "inputs": [
                {
                    "indexed": true,
                    "internalType": "address",
                    "name": "from",
                    "type": "address"
                },
                {
                    "indexed": true,
                    "internalType": "address",
                    "name": "to",
                    "type": "address"
                }
            ],
            "name": "VaultUpdated",
            "type": "event"
        },
        {
            "inputs": [],
            "name": "PERCENTAGE_FRACTION",
            "outputs": [
                {
                    "internalType": "uint256",
                    "name": "",
                    "type": "uint256"
                }
            ],
            "stateMutability": "view",
            "type": "function"
        },
        {
            "inputs": [],
            "name": "VERSION",
            "outputs": [
                {
                    "internalType": "bytes32",
                    "name": "",
                    "type": "bytes32"
                }
            ],
            "stateMutability": "view",
            "type": "function"
        },
        {
            "inputs": [],
            "name": "authority",
            "outputs": [
                {
                    "internalType": "contract IAuthority",
                    "name": "authority_",
                    "type": "address"
                }
            ],
            "stateMutability": "view",
            "type": "function"
        },
        {
            "inputs": [],
            "name": "bonus",
            "outputs": [
                {
                    "internalType": "uint256",
                    "name": "",
                    "type": "uint256"
                }
            ],
            "stateMutability": "view",
            "type": "function"
        },
        {
            "inputs": [
                {
                    "internalType": "address",
                    "name": "buyer_",
                    "type": "address"
                },
                {
                    "internalType": "contract IERC20Upgradeable",
                    "name": "payment_",
                    "type": "address"
                },
                {
                    "internalType": "uint256",
                    "name": "value_",
                    "type": "uint256"
                },
                {
                    "internalType": "uint256",
                    "name": "listingId_",
                    "type": "uint256"
                }
            ],
            "name": "buy",
            "outputs": [],
            "stateMutability": "nonpayable",
            "type": "function"
        },
        {
            "inputs": [
                {
                    "internalType": "contract IAuthority",
                    "name": "authority_",
                    "type": "address"
                },
                {
                    "internalType": "contract ITreasury",
                    "name": "treasury_",
                    "type": "address"
                }
            ],
            "name": "init",
            "outputs": [],
            "stateMutability": "nonpayable",
            "type": "function"
        },
        {
            "inputs": [
                {
                    "internalType": "address",
                    "name": "seller_",
                    "type": "address"
                },
                {
                    "internalType": "contract IERC721Upgradeable",
                    "name": "nft_",
                    "type": "address"
                },
                {
                    "internalType": "uint256",
                    "name": "tokenId_",
                    "type": "uint256"
                },
                {
                    "internalType": "uint256",
                    "name": "usdPrice_",
                    "type": "uint256"
                },
                {
                    "internalType": "contract IERC20Upgradeable[]",
                    "name": "payments_",
                    "type": "address[]"
                }
            ],
            "name": "listItem",
            "outputs": [],
            "stateMutability": "nonpayable",
            "type": "function"
        },
        {
            "inputs": [
                {
                    "internalType": "uint256",
                    "name": "listingId_",
                    "type": "uint256"
                },
                {
                    "components": [
                        {
                            "internalType": "contract IERC721Upgradeable",
                            "name": "nft",
                            "type": "address"
                        },
                        {
                            "internalType": "address",
                            "name": "seller",
                            "type": "address"
                        },
                        {
                            "internalType": "uint256",
                            "name": "tokenId",
                            "type": "uint256"
                        },
                        {
                            "internalType": "uint256",
                            "name": "usdPrice",
                            "type": "uint256"
                        },
                        {
                            "internalType": "contract IERC20Upgradeable[]",
                            "name": "payments",
                            "type": "address[]"
                        }
                    ],
                    "internalType": "struct IMarketplace.Item",
                    "name": "item_",
                    "type": "tuple"
                }
            ],
            "name": "modifyListingItem",
            "outputs": [],
            "stateMutability": "nonpayable",
            "type": "function"
        },
        {
            "inputs": [
                {
                    "internalType": "uint256",
                    "name": "listingId_",
                    "type": "uint256"
                }
            ],
            "name": "order",
            "outputs": [
                {
                    "components": [
                        {
                            "internalType": "contract IERC721Upgradeable",
                            "name": "nft",
                            "type": "address"
                        },
                        {
                            "internalType": "address",
                            "name": "seller",
                            "type": "address"
                        },
                        {
                            "internalType": "uint256",
                            "name": "tokenId",
                            "type": "uint256"
                        },
                        {
                            "internalType": "uint256",
                            "name": "usdPrice",
                            "type": "uint256"
                        },
                        {
                            "internalType": "contract IERC20Upgradeable[]",
                            "name": "payments",
                            "type": "address[]"
                        }
                    ],
                    "internalType": "struct IMarketplace.Item",
                    "name": "",
                    "type": "tuple"
                }
            ],
            "stateMutability": "view",
            "type": "function"
        },
        {
            "inputs": [],
            "name": "proxiableUUID",
            "outputs": [
                {
                    "internalType": "bytes32",
                    "name": "",
                    "type": "bytes32"
                }
            ],
            "stateMutability": "view",
            "type": "function"
        },
        {
            "inputs": [
                {
                    "internalType": "contract IERC20Upgradeable",
                    "name": "token_",
                    "type": "address"
                },
                {
                    "internalType": "uint256",
                    "name": "amount_",
                    "type": "uint256"
                }
            ],
            "name": "recoverERC20",
            "outputs": [],
            "stateMutability": "nonpayable",
            "type": "function"
        },
        {
            "inputs": [],
            "name": "recoverNative",
            "outputs": [],
            "stateMutability": "nonpayable",
            "type": "function"
        },
        {
            "inputs": [
                {
                    "internalType": "address",
                    "name": "account_",
                    "type": "address"
                }
            ],
            "name": "sellerOrders",
            "outputs": [
                {
                    "components": [
                        {
                            "internalType": "contract IERC721Upgradeable",
                            "name": "nft",
                            "type": "address"
                        },
                        {
                            "internalType": "address",
                            "name": "seller",
                            "type": "address"
                        },
                        {
                            "internalType": "uint256",
                            "name": "tokenId",
                            "type": "uint256"
                        },
                        {
                            "internalType": "uint256",
                            "name": "usdPrice",
                            "type": "uint256"
                        },
                        {
                            "internalType": "contract IERC20Upgradeable[]",
                            "name": "payments",
                            "type": "address[]"
                        }
                    ],
                    "internalType": "struct IMarketplace.Item[]",
                    "name": "orders",
                    "type": "tuple[]"
                }
            ],
            "stateMutability": "view",
            "type": "function"
        },
        {
            "inputs": [
                {
                    "internalType": "uint256",
                    "name": "listingId_",
                    "type": "uint256"
                }
            ],
            "name": "unlistItem",
            "outputs": [],
            "stateMutability": "nonpayable",
            "type": "function"
        },
        {
            "inputs": [
                {
                    "internalType": "contract IAuthority",
                    "name": "authority_",
                    "type": "address"
                }
            ],
            "name": "updateAuthority",
            "outputs": [],
            "stateMutability": "nonpayable",
            "type": "function"
        },
        {
            "inputs": [
                {
                    "internalType": "contract ITreasury",
                    "name": "treasury_",
                    "type": "address"
                }
            ],
            "name": "updateTreasury",
            "outputs": [],
            "stateMutability": "nonpayable",
            "type": "function"
        },
        {
            "inputs": [
                {
                    "internalType": "address",
                    "name": "newImplementation",
                    "type": "address"
                }
            ],
            "name": "upgradeTo",
            "outputs": [],
            "stateMutability": "nonpayable",
            "type": "function"
        },
        {
            "inputs": [
                {
                    "internalType": "address",
                    "name": "newImplementation",
                    "type": "address"
                },
                {
                    "internalType": "bytes",
                    "name": "data",
                    "type": "bytes"
                }
            ],
            "name": "upgradeToAndCall",
            "outputs": [],
            "stateMutability": "payable",
            "type": "function"
        },
        {
            "inputs": [],
            "name": "vault",
            "outputs": [
                {
                    "internalType": "address",
                    "name": "",
                    "type": "address"
                }
            ],
            "stateMutability": "view",
            "type": "function"
        },
        {
            "inputs": [],
            "name": "withdrawBonus",
            "outputs": [],
            "stateMutability": "nonpayable",
            "type": "function"
        },
        {
            "stateMutability": "payable",
            "type": "receive"
        }
    ],
    "bytecode": "60a06040523060805234801561001457600080fd5b5060805161231d61004c6000396000818161058d015281816105ce015281816107260152818161076701526107fb015261231d6000f3fe6080604052600436106101235760003560e01c80637f51bb1f116100a0578063bf7e214f11610064578063bf7e214f14610399578063ddcdb9e9146103c2578063f09a4016146103e2578063fbfa77cf14610402578063ffa1ad741461042257600080fd5b80637f51bb1f146103035780638980f11f14610323578063a25cfe8614610343578063a9d424e214610359578063b94f5dc41461037957600080fd5b806352d1902d116100e757806352d1902d146102885780635a54db86146102ab5780635a599da8146102c057806366de84ec146102e057806375b4d78c146102ec57600080fd5b806321603f43146101d05780632647d49a146102065780633659cfe6146102335780633c716e08146102555780634f1ef2861461027557600080fd5b366101cb5760fc546040516000916001600160a01b03169034908381818185875af1925050503d8060008114610175576040519150601f19603f3d011682016040523d82523d6000602084013e61017a565b606091505b505090508061019c57604051631a3bc75d60e21b815260040160405180910390fd5b604051349033907f6f1deddfc28100c291fae8f1064e4a91e844f0841993bb8fba9a913c3b801d8090600090a3005b600080fd5b3480156101dc57600080fd5b506101f06101eb366004611a7a565b610456565b6040516101fd9190611b1f565b60405180910390f35b34801561021257600080fd5b50610226610221366004611b47565b610490565b6040516101fd9190611b64565b34801561023f57600080fd5b5061025361024e366004611b47565b610583565b005b34801561026157600080fd5b50610253610270366004611b47565b610664565b610253610283366004611c36565b61071c565b34801561029457600080fd5b5061029d6107ee565b6040519081526020016101fd565b3480156102b757600080fd5b5061025361084c565b3480156102cc57600080fd5b506102536102db366004611a7a565b610864565b34801561025357600080fd5b3480156102f857600080fd5b5061029d6101305481565b34801561030f57600080fd5b5061025361031e366004611b47565b6109a9565b34801561032f57600080fd5b5061025361033e366004611cde565b610a17565b34801561034f57600080fd5b5061029d61271081565b34801561036557600080fd5b50610253610374366004611d0a565b610a2f565b34801561038557600080fd5b50610253610394366004611d50565b610d5f565b3480156103a557600080fd5b506098545b6040516001600160a01b0390911681526020016101fd565b3480156103ce57600080fd5b506102536103dd366004611d9e565b610e5f565b3480156103ee57600080fd5b506102536103fd366004611e4b565b6110de565b34801561040e57600080fd5b5060fc546103aa906001600160a01b031681565b34801561042e57600080fd5b5061029d7f58166ef1331604f9d1096f21021b62681af867d090bf7bef436de91286e1ed6781565b61045e611a39565b600082815261012e6020526040902054610477906111b2565b80602001905181019061048a9190611e79565b92915050565b6001600160a01b038116600090815261012f60205260408120606091906104b6906111db565b90508067ffffffffffffffff8111156104d1576104d1611bc6565b60405190808252806020026020018201604052801561050a57816020015b6104f7611a39565b8152602001906001900390816104ef5790505b50915060005b8181101561057c576001600160a01b038416600090815261012f602052604090206105449061053f90836111e5565b6111b2565b8060200190518101906105579190611e79565b83828151811061056957610569611f94565b6020908102919091010152600101610510565b5050919050565b6001600160a01b037f00000000000000000000000000000000000000000000000000000000000000001630036105cc576040516307cb61df60e51b815260040160405180910390fd5b7f00000000000000000000000000000000000000000000000000000000000000006001600160a01b03166106156000805160206122c8833981519152546001600160a01b031690565b6001600160a01b03161461063c57604051633c302bb160e11b815260040160405180910390fd5b610645816111f1565b604080516000808252602082019092526106619183919061121c565b50565b7f97667070c54ef182b0f5858b034beac1b6f3089aa2d3188bb1e8929f4fa9b92961068f8133611304565b600061069a60985490565b9050826001600160a01b0316816001600160a01b0316036106ce5760405163277ccc2160e11b815260040160405180910390fd5b6106d783609855565b826001600160a01b0316816001600160a01b03167fa3396fd7f6e0a21b50e5089d2da70d5ac0a3bbbd1f617a93f134b7638998019860405160405180910390a3505050565b6001600160a01b037f0000000000000000000000000000000000000000000000000000000000000000163003610765576040516307cb61df60e51b815260040160405180910390fd5b7f00000000000000000000000000000000000000000000000000000000000000006001600160a01b03166107ae6000805160206122c8833981519152546001600160a01b031690565b6001600160a01b0316146107d557604051633c302bb160e11b815260040160405180910390fd5b6107de826111f1565b6107ea8282600161121c565b5050565b6000306001600160a01b037f0000000000000000000000000000000000000000000000000000000000000000161461083957604051637970a4df60e11b815260040160405180910390fd5b506000805160206122c883398151915290565b60fc54610862906001600160a01b031647611397565b565b600081815261012e6020526040812054908190036108955760405163178f7a0d60e31b815260040160405180910390fd5b3360006108a1836111b2565b8060200190518101906108b49190611e79565b9050816001600160a01b031681602001516001600160a01b0316146108ec57604051634aae4fe960e01b815260040160405180910390fd5b6108f78285856113c8565b60fc5481516040808401519051636ce5768960e11b81526001600160a01b039093169263d9caed1292610931929091879190600401611faa565b600060405180830381600087803b15801561094b57600080fd5b505af115801561095f573d6000803e3d6000fd5b50505050806040516109719190611fce565b6040519081900381209085907fa23477ced802c25f282be4db41bfaf391bd9e0f4ba59e6b8d65013a5f8cfcba490600090a350505050565b7f97667070c54ef182b0f5858b034beac1b6f3089aa2d3188bb1e8929f4fa9b9296109d48133611304565b60fc546040516001600160a01b038085169216907f483bdedaaf23706a9800ac1af0d852b34927780d79f9d6ba60a80c7cad75ea3990600090a36107ea826113fb565b60fc546107ea9083906001600160a01b031683611457565b7f77d72916e966418e6dc58a19999ae9934bef3f749f1547cde0a86e809f19c89b610a5a8133611304565b600082815261012e602052604081205490819003610a8b5760405163178f7a0d60e31b815260040160405180910390fd5b6000610a96826111b2565b806020019051810190610aa99190611e79565b9050610aba816020015185846113c8565b6080810151516000805b82811015610b1357886001600160a01b031684608001518281518110610aec57610aec611f94565b60200260200101516001600160a01b031603610b0b5760019150610b13565b600101610ac4565b5080610b41576040516218147d60e31b81526001600160a01b03891660048201526024015b60405180910390fd5b60fc5460405163b95ed06f60e01b81526001600160a01b038a8116600483015290911690600090829063b95ed06f90602401602060405180830381865afa158015610b90573d6000803e3d6000fd5b505050506040513d601f19601f82011682018060405250810190610bb49190612042565b90506000610bcb8a83670de0b6b3a7640000611489565b90508560600151811015610bf25760405163438015f160e11b815260040160405180910390fd5b6060860151600090610c0d90670de0b6b3a764000085611489565b9050836001600160a01b031663d9caed128d8960200151846040518463ffffffff1660e01b8152600401610c4393929190611faa565b600060405180830381600087803b158015610c5d57600080fd5b505af1158015610c71573d6000803e3d6000fd5b505050508a811015610ce657836001600160a01b031663d9caed128d8960200151848f036040518463ffffffff1660e01b8152600401610cb393929190611faa565b600060405180830381600087803b158015610ccd57600080fd5b505af1158015610ce1573d6000803e3d6000fd5b505050505b836001600160a01b031663d9caed1288600001518f8a604001516040518463ffffffff1660e01b8152600401610d1e93929190611faa565b600060405180830381600087803b158015610d3857600080fd5b505af1158015610d4c573d6000803e3d6000fd5b5050505050505050505050505050505050565b600082815261012e602052604081205490819003610d905760405163178f7a0d60e31b815260040160405180910390fd5b6000610d9b826111b2565b806020019051810190610dae9190611e79565b60208101519091506001600160a01b03163314610dde57604051634aae4fe960e01b815260040160405180910390fd5b610e0683604051602001610df291906120f4565b6040516020818303038152906040526114a7565b600085815261012e6020526040908190209190915551610e27908490612165565b6040519081900381209085907faca7c86203ce1327c9cdbc26841a629749df434a88ba8f154114e2e107e8eea590600090a350505050565b7f77d72916e966418e6dc58a19999ae9934bef3f749f1547cde0a86e809f19c89b610e8a8133611304565b610eb47f77d72916e966418e6dc58a19999ae9934bef3f749f1547cde0a86e809f19c89b876114fb565b610ed15760405163258add4f60e21b815260040160405180910390fd5b60fc5482906001600160a01b031660005b82811015610fdf57816001600160a01b0316638007b3f9878784818110610f0b57610f0b611f94565b9050602002016020810190610f209190611b47565b6040516001600160e01b031960e084901b1681526001600160a01b039091166004820152602401602060405180830381865afa158015610f64573d6000803e3d6000fd5b505050506040513d601f19601f82011682018060405250810190610f8891906121f8565b610fd757858582818110610f9e57610f9e611f94565b9050602002016020810190610fb39190611b47565b6040516218147d60e31b81526001600160a01b039091166004820152602401610b38565b600101610ee2565b50600089898988888b604051602001610ffd9695949392919061221a565b6040516020818303038152906040528051906020012060001c905060006040518060a001604052808b6001600160a01b031681526020018c6001600160a01b031681526020018a8152602001898152602001888880806020026020016040519081016040528093929190818152602001838360200280828437600092019190915250505091525090506110918b8383611579565b8060405161109f9190611fce565b6040519081900381209083907f0ef352e44100ebde6073c41d37cac59bcac0c5ff86cffe5f466733eb5c4bce2290600090a35050505050505050505050565b60015460005460029091148015919082906110f7575080155b8061110c575080600114801561110c5750303b155b611129576040516317456d5560e11b815260040160405180910390fd5b6001600055811561113a5760026001555b611164847f3496e2e73c4d42b75d702e60d9e48102720b8691234415963a5a857b86425d076115cc565b61116d83611652565b81156111ac5760018080556040519081527fbe9b076dc5b65990cca9dd9d7366682482e7817a6f6bc7f4faf4dc32af497f329060200160405180910390a15b50505050565b6060816111d48160016111cf816001600160a01b0384163b612261565b61167e565b9392505050565b600061048a825490565b60006111d483836116a1565b7f189ab7a9244df0848122154315af71fe140f3db0fe014031783b0946b8c9d2e36107ea8133611304565b7f4910fdfa16fed3260ed0e7147f7cc6da11a60208b5b9406d12a635614ffd91435460ff16156112545761124f836116cb565b505050565b826001600160a01b03166352d1902d6040518163ffffffff1660e01b8152600401602060405180830381865afa9250505080156112ae575060408051601f3d908101601f191682019092526112ab91810190612042565b60015b6112cb576040516338622d4360e01b815260040160405180910390fd5b6000805160206122c883398151915281146112f8576040516229dbf560e71b815260040160405180910390fd5b5061124f838383611722565b609854604051632474521560e21b8152600481018490526001600160a01b03838116602483015291909116906391d1485490604401602060405180830381865afa158015611356573d6000803e3d6000fd5b505050506040513d601f19601f8201168201806040525081019061137a91906121f8565b6107ea57604051635d53684160e01b815260040160405180910390fd5b6113a18282611747565b6113ab8282611779565b6107ea576040516308650e6f60e41b815260040160405180910390fd5b600082815261012e602090815260408083208390556001600160a01b038616835261012f90915290206111ac908261178c565b60fc546040516001600160a01b038084169216907f483bdedaaf23706a9800ac1af0d852b34927780d79f9d6ba60a80c7cad75ea3990600090a360fc80546001600160a01b0319166001600160a01b0392909216919091179055565b6114618282611747565b61146c838383611798565b61124f576040516308650e6f60e41b815260040160405180910390fd5b60008260001904841183021582026114a057600080fd5b5091020490565b6000808251600181018060401b6a61000080600a3d393df300178552600a8101601586016000f09185525090506001600160a01b03811661048a57604051636078185d60e11b815260040160405180910390fd5b600061150660985490565b604051632474521560e21b8152600481018590526001600160a01b03848116602483015291909116906391d1485490604401602060405180830381865afa158015611555573d6000803e3d6000fd5b505050506040513d601f19601f820116820180604052508101906111d491906121f8565b600061158f82604051602001610df29190611b1f565b600084815261012e602090815260408083208490556001600160a01b038816835261012f90915290209091506115c590826117d7565b5050505050565b6001546002146115ef57604051638b4188b360e01b815260040160405180910390fd5b60405163841fb50360e01b8152600481018290526001600160a01b0383169063841fb50390602401600060405180830381600087803b15801561163157600080fd5b505af1158015611645573d6000803e3d6000fd5b505050506107ea82609855565b60015460021461167557604051638b4188b360e01b815260040160405180910390fd5b610661816113fb565b60408051603f8301601f19168101909152818152818360208301863c9392505050565b60008260000182815481106116b8576116b8611f94565b9060005260206000200154905092915050565b6001600160a01b0381163b6116f3576040516308e43b2760e21b815260040160405180910390fd5b6000805160206122c883398151915280546001600160a01b0319166001600160a01b0392909216919091179055565b61172b836117e3565b6000825111806117385750805b1561124f576111ac8383611823565b80158061175b57506001600160a01b038216155b156107ea57604051638aa97e7d60e01b815260040160405180910390fd5b600080600080600085875af19392505050565b60006111d483836118c0565b600060405163a9059cbb60e01b8152836004820152826024820152602060006044836000895af1600051600114601f3d11163d15171695945050505050565b60006111d483836119b3565b6117ec816116cb565b6040516001600160a01b038216907fbc7cd75a20ee27fd9adebab32041f755214dbc6bffa90cc0225b39da2e5c2d3b90600090a250565b60606001600160a01b0383163b61184d5760405163119da90b60e11b815260040160405180910390fd5b600080846001600160a01b0316846040516118689190612282565b600060405180830381855af49150503d80600081146118a3576040519150601f19603f3d011682016040523d82523d6000602084013e6118a8565b606091505b50915091506118b78282611a02565b95945050505050565b600081815260018301602052604081205480156119a95760006118e4600183612261565b85549091506000906118f890600190612261565b905081811461195d57600086600001828154811061191857611918611f94565b906000526020600020015490508087600001848154811061193b5761193b611f94565b6000918252602080832090910192909255918252600188019052604090208390555b855486908061196e5761196e6122b1565b60019003818190600052602060002001600090559055856001016000868152602001908152602001600020600090556001935050505061048a565b600091505061048a565b60008181526001830160205260408120546119fa5750815460018181018455600084815260208082209093018490558454848252828601909352604090209190915561048a565b50600061048a565b60608215611a1157508061048a565b815115611a2057815182602001fd5b604051631658db7d60e21b815260040160405180910390fd5b6040518060a0016040528060006001600160a01b0316815260200160006001600160a01b031681526020016000815260200160008152602001606081525090565b600060208284031215611a8c57600080fd5b5035919050565b80516001600160a01b03908116835260208083015190911681840152604080830151908401526060808301519084015260808083015160a091850182905280519185018290526000929081019183919060c08701905b80841015611b145784516001600160a01b031682526020820191508285019450600184019350611ae9565b509695505050505050565b6020815260006111d46020830184611a93565b6001600160a01b038116811461066157600080fd5b600060208284031215611b5957600080fd5b81356111d481611b32565b6000602080830181845280855180835260408601915060408160051b870101925083870160005b82811015611bb957603f19888603018452611ba7858351611a93565b94509285019290850190600101611b8b565b5092979650505050505050565b634e487b7160e01b600052604160045260246000fd5b60405160a0810167ffffffffffffffff81118282101715611bff57611bff611bc6565b60405290565b604051601f8201601f1916810167ffffffffffffffff81118282101715611c2e57611c2e611bc6565b604052919050565b60008060408385031215611c4957600080fd5b8235611c5481611b32565b915060208381013567ffffffffffffffff80821115611c7257600080fd5b818601915086601f830112611c8657600080fd5b813581811115611c9857611c98611bc6565b611caa601f8201601f19168501611c05565b91508082528784828501011115611cc057600080fd5b80848401858401376000848284010152508093505050509250929050565b60008060408385031215611cf157600080fd5b8235611cfc81611b32565b946020939093013593505050565b60008060008060808587031215611d2057600080fd5b8435611d2b81611b32565b93506020850135611d3b81611b32565b93969395505050506040820135916060013590565b60008060408385031215611d6357600080fd5b82359150602083013567ffffffffffffffff811115611d8157600080fd5b830160a08186031215611d9357600080fd5b809150509250929050565b60008060008060008060a08789031215611db757600080fd5b8635611dc281611b32565b95506020870135611dd281611b32565b94506040870135935060608701359250608087013567ffffffffffffffff80821115611dfd57600080fd5b818901915089601f830112611e1157600080fd5b813581811115611e2057600080fd5b8a60208260051b8501011115611e3557600080fd5b6020830194508093505050509295509295509295565b60008060408385031215611e5e57600080fd5b8235611e6981611b32565b91506020830135611d9381611b32565b60006020808385031215611e8c57600080fd5b825167ffffffffffffffff80821115611ea457600080fd5b9084019060a08287031215611eb857600080fd5b611ec0611bdc565b8251611ecb81611b32565b815282840151611eda81611b32565b8085830152506040830151604082015260608301516060820152608083015182811115611f0657600080fd5b80840193505086601f840112611f1b57600080fd5b825182811115611f2d57611f2d611bc6565b8060051b9250611f3e858401611c05565b8181529284018501928581019089851115611f5857600080fd5b948601945b84861015611f825785519250611f7283611b32565b8282529486019490860190611f5d565b60808401525090979650505050505050565b634e487b7160e01b600052603260045260246000fd5b6001600160a01b039384168152919092166020820152604081019190915260600190565b81516001600160a01b0390811682526020808401518216818401526040808501519084015260608085015190840152608080850151805160009492918401918591908701905b8083101561203657835185168252928501926001929092019190850190612014565b50979650505050505050565b60006020828403121561205457600080fd5b5051919050565b6000808335601e1984360301811261207257600080fd5b830160208101925035905067ffffffffffffffff81111561209257600080fd5b8060051b36038213156120a457600080fd5b9250929050565b8183526000602080850194508260005b858110156120e95781356120ce81611b32565b6001600160a01b0316875295820195908201906001016120bb565b509495945050505050565b602081526000823561210581611b32565b6001600160a01b039081166020848101919091528401359061212682611b32565b808216604085015250506040830135606083015260608301356080830152612151608084018461205b565b60a0808501526118b760c0850182846120ab565b6000823561217281611b32565b6001600160a01b0390811683526020908482013561218f81611b32565b81811683860152506040850135604085015260608501356060850152608084016121bc608087018761205b565b9091600091905b818310156121ec5783356121d681611b32565b85168152928501926001929092019185016121c3565b98975050505050505050565b60006020828403121561220a57600080fd5b815180151581146111d457600080fd5b6001600160a01b038781168252861660208201526040810185905260a06060820181905260009061224e90830185876120ab565b9050826080830152979650505050505050565b8181038181111561048a57634e487b7160e01b600052601160045260246000fd5b6000825160005b818110156122a35760208186018101518583015201612289565b506000920191825250919050565b634e487b7160e01b600052603160045260246000fdfe360894a13ba1a3210667c828492db98dca3e2076cc3735a920a3ca505d382bbca264697066735822122045877fbc1358e0205780a7b770a1cfc46b78427472811ebf03d22fa078fb759364736f6c63430008110033",
    "sourcePath": "/Users/dotu/repo/marketplace/contracts/Marketplace.sol",
    "compiler": {
        "name": "solc",
        "version": "0.8.17+commit.8df45f5f"
    },
    "functionHashes": {
        "PERCENTAGE_FRACTION()": "a25cfe86",
        "VERSION()": "ffa1ad74",
        "authority()": "bf7e214f",
        "bonus()": "75b4d78c",
        "buy(address,address,uint256,uint256)": "a9d424e2",
        "init(address,address)": "f09a4016",
        "listItem(address,address,uint256,uint256,address[])": "ddcdb9e9",
        "modifyListingItem(uint256,(address,address,uint256,uint256,address[]))": "b94f5dc4",
        "order(uint256)": "21603f43",
        "proxiableUUID()": "52d1902d",
        "recoverERC20(address,uint256)": "8980f11f",
        "recoverNative()": "5a54db86",
        "sellerOrders(address)": "2647d49a",
        "unlistItem(uint256)": "5a599da8",
        "updateAuthority(address)": "3c716e08",
        "updateTreasury(address)": "7f51bb1f",
        "upgradeTo(address)": "3659cfe6",
        "upgradeToAndCall(address,bytes)": "4f1ef286",
        "vault()": "fbfa77cf",
        "withdrawBonus()": "66de84ec"
    },
    "gasEstimates": {
        "creation": {
            "codeDepositCost": "1797800",
            "executionCost": "infinite",
            "totalCost": "infinite"
        },
        "external": {
            "PERCENTAGE_FRACTION()": "262",
            "VERSION()": "305",
            "authority()": "2324",
            "bonus()": "2406",
            "buy(address,address,uint256,uint256)": "infinite",
            "init(address,address)": "infinite",
            "listItem(address,address,uint256,uint256,address[])": "infinite",
            "modifyListingItem(uint256,(address,address,uint256,uint256,address[]))": "infinite",
            "order(uint256)": "infinite",
            "proxiableUUID()": "infinite",
            "recoverERC20(address,uint256)": "infinite",
            "recoverNative()": "infinite",
            "sellerOrders(address)": "infinite",
            "unlistItem(uint256)": "infinite",
            "updateAuthority(address)": "infinite",
            "updateTreasury(address)": "infinite",
            "upgradeTo(address)": "infinite",
            "upgradeToAndCall(address,bytes)": "infinite",
            "vault()": "2425",
            "withdrawBonus()": "212"
        },
        "internal": {
            "__listItem(address,uint256,struct IMarketplace.Item memory)": "infinite",
            "__unlistItem(address,uint256,bytes32)": "infinite"
        }
    }
}